:100000000A308A00592A00000A108A100A11820751
:1000100028340C3401340634D332741D2000D03B14
:10002000721D00014F3366100000C31D2000C31D68
:100030002000C430F6346B36E93A00016B36E13407
:10004000E4302100CE3A733A613AF935693A651DD8
:10005000200043004F33661000014F33661000004C
:100060005030840083130008031943280230F8003D
:10007000F701F70B3928F80B38289730F700F70B02
:100080003F28800B3628080057184828881149282F
:100090008815831688118312D71850280812512802
:1000A00008168316081283125719582888125928DF
:1000B0008816831688128312D719602808136128BE
:1000C00008178316081300008312081583160811F9
:1000D00069286A2883120811831608118312080000
:1000E000D801831688150030831288190130D8048E
:1000F0008316081600308312081A0130F700031027
:10010000F70D7708D8048316881600308312881AF2
:100110000130F700F70DF70DFC30F7057708D8042C
:100120008316081700308312081B0130F700F70D03
:10013000F70DF70DF830F7057708D8045808F800E0
:1001400008008316081108108810831208108316FF
:100150000810881508168816081783128814831645
:1001600088100000831208158316081100008312FE
:1001700070207808D7000811831608110000831238
:10018000081583160811C428831270207808D60039
:100190000811831608118811081288120813831297
:1001A000570EF700F030F70577085604F800780886
:1001B000D600D61FDD288316A928D408031DE228FF
:1001C0000810E32808148316081000008312881012
:1001D00083168810000083120811831608118312F9
:1001E000550ED6000F30D6055608D70044205508C6
:1001F0000F39D600D7004420080083168811081252
:10020000881208130811081088108312081083162A
:100210000810831288108316881083120811831621
:1002200008110F308312D00030200130C200420884
:10023000033C031C23290330D70044200530D000A1
:100240003020C20A17290230D70044200530D000E0
:100250003020C2014208033C031C37294208042015
:10026000C300D4014308D500A120C20A2A298A1557
:100270000A12792A510B3D2940294030D2004129E8
:10028000D20101305002D20752088038D300D40185
:100290005308D500A12008004F08073A03195A292E
:1002A0000B3A03195F29063A03196729023A031921
:1002B0006D2972290130D000D1003A217729D4016B
:1002C0000130D500A1200230D00030207729013044
:1002D000D0000230D1003A217729D4011030D50066
:1002E000A12077290130D4004F08D500A1200800B3
:1002F0000B08C2008B13831603178C170C14000015
:10030000000083120C087F390319BF290313C300AF
:1003100003170D080313C40003170F080313C500C8
:100320004308CF004C21440803178D0003134508F0
:1003300003178F0083168C170C1400000000831223
:100340000C0D0E0D7F390319BF290313C3000317CA
:100350000D080313C40003170F080313C500430857
:10036000CF004C21440803178D00031345080317E1
:100370008F008D0A03198F0A03137B2903170313B8
:10038000C21B8B17080080308318C706CC01CD0133
:100390004308CB004708CB0642080319B32ACA001A
:1003A000F70046080319BC2ACA020319582A031C7D
:1003B000162A4708D000D0174808CF004908CE00B9
:1003C000CD010310D00CCF0CCE0CCD0CCA0BE02904
:1003D000CB1FED294C14D02A4C104A104C16453036
:1003E00084008313E52A4C12CB1B002A4A1C0B2ADB
:1003F000D00CCF0CCE0CCD0CF70A0319CB2A0B2A4C
:10040000D01B0E2A0310CD0DCE0DCF0DD00DF7034E
:100410000319CB2A002A4C17782A4C134308CB0027
:10042000CB1F142AD017C42AD013C42A4608CA00E6
:10043000F7004208CA024308D000D0174408CF0092
:100440004508CE00CD010310D00CCF0CCE0CCD0C46
:10045000CA0B222ACB1F2F2ACC14D02ACC104A1028
:10046000CC16493084008313E52ACC12CB1B422AD8
:100470004A1C4D2AD00CCF0CCE0CCD0CF70A031918
:10048000CB2A4D2AD01B502A0310CD0DCE0DCF0DF7
:10049000D00DF7030319CB2A422ACC17782ACC13A4
:1004A0004708CB00CB1F562AD017C42AD013C42A22
:1004B0004708D000D0174808CF004908CE00CB1F0E
:1004C000652AD0134C15D02A4C11CD014A10453065
:1004D00084008313E52ACB1B8E2A4308CB004A1CD9
:1004E000782AD00CCF0CCE0CCD0CF70A0319CB2AEE
:1004F000CD1F892ACE0A031D892ACF0A031D892A06
:10050000D00A031D892AD00CCF0CCE0CF70A031990
:10051000CB2A4C1B0D2ACC1B4F2AAD2A8030D0068B
:10052000D01F962AD02A4708CB00A32A4308CB0025
:10053000D008031DA32ACF08031DA32ACE08031D3C
:10054000A32AF701C42AD01BAD2A0310CD0DCE0D6E
:10055000CF0DD00DF70BA32ACB2ACB1FB12AD01772
:10056000C42AD013C42A4608F7004708D000480818
:10057000CF004908CE00C42A4208F7004308D00043
:100580004408CF004508CE005008F8004F08F90095
:100590004E08FA00032BF701F801F901FA01032BC9
:1005A000CD01CE09CF09D009CD09CD0A031DDE2A20
:1005B000CE0A031DDE2ACF0A0319D00A4C18EC29F3
:1005C000CC182E2A4C19642A932A0008CE07031C43
:1005D000EF2ACF0A031DEF2AD00A03194A14840315
:1005E0000008CF07031CF72AD00A03194A14840312
:1005F0000008801F803AD00703184A144C1AF329C8
:10060000CC1A352A6B2A08008318092B573084002E
:100610008313F701F801F901FA01D701D801D901D3
:10062000DA0156085504540453040319472B2030AB
:10063000DB000310CF0DD00DD10DD20DD70DD80D8D
:10064000D90DDA0D56085A02031D302B55085902F0
:10065000031D302B54085802031D302B530857023A
:10066000031C412B5308D7025408031C540FD80213
:100670005508031C550FD9025608031C560FDA0201
:100680000314F70DF80DF90DFA0DDB0B192B5708B4
:100690008000840A58088000840A59088000840A6F
:1006A0005A08800008000408C7004608C90003195A
:1006B000E52B4508D2004408D1004308D000420889
:1006C000CF00D601D5012030D4008230D3004F08AE
:1006D0000319D72BD70053080319D72BD7070318B3
:1006E000782B7F30D702031CD72B0319D72B7C2BF9
:1006F0008130D7070318D72B5708F700F801F90105
:10070000FA015008DB00DB175108DA005208D90063
:100710001830D700D801591CA52B5608FA07031C1E
:10072000972BF90A031D972BF80A0319D8175508B8
:10073000F907031C9E2BF80A0319D8175408D10097
:10074000D1175108F8070318D817D80DF80CF90C71
:10075000FA0CDB0CDA0CD90C0310D70B8A2B013006
:10076000F7070318D72BF81BBC2BDB0DFA0DF90D7F
:10077000F80DF7030319D72BDB1FCD2BFA0A031D46
:10078000CD2BF90A031DCD2BF80A031DCD2BF80C38
:10079000F90CFA0CF70A0319D72B5008D8005408A3
:1007A000D806D81FD52BF817DB2BF813DB2BF70156
:1007B000F801F901FA017A08C5007908C40078083F
:1007C000C3007708C200C90B592B4508D200440862
:1007D000D1004308D0004208CF004F08B63CCF00FC
:1007E000FA015008D300D0170310D00CD10CD20C52
:1007F000FA0CF90CF80CF70CCF0BF42BD31F0B2CC5
:10080000F709F809F909FA09F70A0319F80A0319A7
:10081000F90A0319FA0A7A08C5007908C4007808A9
:10082000C3007708C200C51F222CC703C716C20920
:10083000C309C409C509C20A0319C30A0319C40AB2
:100840000319C50A3B30CE009A30CD00CA30CC0027
:10085000CB010A30C90046080319C70A8314423085
:10086000840083134508D2004408D1004308D00017
:100870004208CF004E08D6004D08D5004C08D400E1
:100880004B08D30004237808F708031D5A2C460AA6
:10089000490203195A2C470803195C2C0F394902E5
:1008A0000319542C03188C2CC71B8C2C471B5C2C55
:1008B0002030882C2030C705C71E6A2CC712460876
:1008C000031DC7037708C7002D30CF004C21470810
:1008D000F700C70146084902031D782C7708C700B6
:1008E0002E30CF004C214708F7002030C7050030DC
:1008F0003030C71E882CC7124608031DC70377086F
:10090000C7002D30CF004C214708F700C701303019
:10091000F7077708CF004C2183104E08D2004D080E
:10092000D1004C08D0004B08CF00D601D501D4012E
:100930000A30D30004237A08CE007908CD00780865
:10094000CC007708CB00C90B2E2C08004308CA0046
:100950004708CA06CA1FB12C03110310C31B031496
:10096000E42C4308CA004608CB004208CB02031916
:10097000BF2CCA1FE42C0308013A8300E42C47086B
:10098000CB004308CB020319CB2CCA1FE42C03086D
:10099000013A8300E42C4808CB004408CB02031939
:1009A000D72CCA1FE42C0308013A8300E42C490821
:1009B000CB004508CB020319E32CCA1FE42C030823
:1009C000013A8300E42C031008000330D00001300A
:1009D000D1003A21223003178D0000308F0003131D
:1009E00078218316061483120618382D0630D0009D
:1009F0000230D1003A2183102F08C5002E08C40010
:100A00002D08C3002C08C200C901C8012030C7004E
:100A10008130C600C3217A08AF007908AE0078089B
:100A2000AD007708AC00023084002F08C5002E0806
:100A3000C4002D08C3002C08C200C60153232F0890
:100A4000C5002E08C4002D08C3002C08C2002708CA
:100A5000C9002608C8002508C7002408C600A62427
:100A6000031D382DAF01AE012030AD008230AC0047
:100A7000831606168312061A662D0630D000023041
:100A8000D1003A2183142F08C5002E08C4002D0878
:100A9000C3002C08C200C901C8012030C700813042
:100AA000C600C3217A08AF007908AE007808AD000F
:100AB0007708AC00023084002F08C5002E08C4005F
:100AC0002D08C3002C08C200C60153230930D000F2
:100AD0000230D1003A21DF30CF004C2129300317FA
:100AE0008D0000308F00031378218A150A12862AA0
:100AF0000A30D0000130D1003A210C3003178D00AC
:100B000000308F00031378210E30D0000130D10067
:100B10003A21023084002F08C5002E08C4002D0899
:100B2000C3002C08C200C60153230A30D000023093
:100B3000D1003A210F3003178D0000308F000313CE
:100B400078210130D000D1003A215630CF004C211D
:100B50003A30CF004C212030CF004C210130D00062
:100B60000230D1003A214130CF004C213A30CF0041
:100B70004C212030CF004C218A150A129C2A0830C3
:100B8000C502031CCF2D4530840083130310800C55
:100B900000080319CF2DCD2D0000800BCC2D0800AF
:100BA00083168610831286108316861002308312F5
:100BB000C400F830C500BF25C40BD92D8316861498
:100BC0004230F700F70BE22D0000861483128618DE
:100BD000F32D0230C400C630C500BF25C40BEB2D79
:100BE0000130F800F52D0030F8000800C501450877
:100BF000073C031C282E4408F7004508F800031999
:100C0000052E0310F70CF80B012E00307718013079
:100C1000C6004608C7008316861083128610831606
:100C20008610122E132E8312C708031D192E86104C
:100C30001A2E8614831686103430F700F70B1E2EFA
:100C4000212E00008614242E252E8312C50AF72D8E
:100C50000800C901C8014808073C031C552E83162B
:100C600086108312861083168610362E372E861431
:100C70000230F700F70B3A2E3D2E00008614831247
:100C80004A1086184A144230F700F70B452E000030
:100C900000304A180130F800F808031D512E0310E7
:100CA000522E0314C90CC80A2B2E4908F80008005C
:100CB0008E30F7004308F8004208F900FA01C31F1C
:100CC000662EF809F909F90A0319F80AF808031D4C
:100CD000732E7908F800F9010830F702F808031DAF
:100CE000732EF7017C2E0310F81B7A2EF90DF80DE8
:100CF000F703732EC31FF813080046080319422F89
:100D0000D2004A080319422FD202031C8C2E7F30D6
:100D1000D2070318422F922E8130D202031C422F99
:100D20000319422F5208F700F801F901FA01D10125
:100D30004708D000D0174808CF004908CE00193026
:100D4000D2004D08CE020318B52E0130CF02031891
:100D5000B52ED0020318B52ED1020318B52ED10A34
:100D6000D00ACF0A4D08CE07E72E4C08CF02031851
:100D7000D02E0130D0020318D02ED1020318D02E6D
:100D8000D10AD00A4C08CF074D08CE07031CE72E26
:100D9000CF0A031DE72ED00A031DE72ED10AE72E46
:100DA0004B088038D0020318E62E0130D102031818
:100DB000E62ED10A4B088038D0074C08CF07031C19
:100DC000C42ED00A031DC42ED10AC42E7A14D20B0D
:100DD000EA2EF52E0310CE0DCF0DD00DD10D031040
:100DE000FA0DF90DF80DD30DA12E531CFD2E031095
:100DF000F80CF90CFA0CD30C002FF7030319422F4F
:100E0000D31B292F0310CE0DCF0DD00DD10D4D08C2
:100E1000CE020318152F0130CF020318152FD00270
:100E20000318152FD102031C382F4C08CF020318CA
:100E3000202F0130D0020318202FD102031C382F9D
:100E40004B088038D0020318292F0130D102031C2F
:100E5000382FFA0A031D382FF90A031D382FF80A14
:100E6000031D382FF70A0319422FF80CF90CFA0C5E
:100E70004708D2004B08D206D21F402FF817462F42
:100E8000F813462FF701F801F901FA01080083165B
:100E90000611831206118316061102308312C40054
:100EA000F830C500BF25C40B502F831606154230FD
:100EB000F700F70B592F00000615831206196A2F49
:100EC0000230C400C630C500BF25C40B622F0130FC
:100ED000F800702F83160611831206150030F800F3
:100EE0000800C5014508073C031CA32F4408F70070
:100EF0004508F8000319802F0310F70CF80B7C2F1E
:100F0000003077180130C6004608C7008316061166
:100F100083120611831606118D2F8E2F8312C70898
:100F2000031D942F0611952F0615831606113430D4
:100F3000F700F70B992F9C2F000006159F2FA02F6D
:100F40008312C50A722F0800C901C8014808073C6E
:100F5000031CD02F83160611831206118316061167
:100F6000B12FB22F06150230F700F70BB52FB82FAF
:100F70000000061583124A1006194A144230F70081
:100F8000F70BC02F000000304A180130F800F808B5
:100F9000031DCC2F0310CD2F0314C90CC80AA62F94
:060FA0004908F8000800FA
:10100000C3012830C2008A11D0258A15F808031DB3
:101010000C280030F8006A28CC30C4008A11F6256C
:101020008A154430C4008A11F6258A158A112926AA
:101030008A15F808031916288A11D0258A15F80888
:10104000031D25280030F8006A28CC30C4008A111E
:10105000F6258A15BE30C4008A11F6258A15430884
:10106000FA004208C4004308C5008A1129268A15DF
:1010700044088400831345188317840A800184037D
:10108000780880004308FA004208C4004308C500FD
:1010900042088400831343188317840A0008C7009A
:1010A00084030008C6008A1129268A15C901003068
:1010B0004604F70078084704FA00440884008313C4
:1010C00045188317840A7A08800084037708800013
:1010D0000130F800F8080319CA283308C50032089F
:1010E000C4003108C3003008C2003B08C9003A08F8
:1010F000C8003908C7003808C6008A11A6248A1516
:101100002908C3002808C2008A1158268A157A08BF
:10111000C5007908C4007808C3007708C2004508F4
:10112000C9004408C8004308C7004208C600CD01F2
:10113000CC01CB018330CA008A117D268A157A083A
:10114000B3007908B2007808B1007708B000033026
:10115000D0000230D1008A113A218A150230840071
:101160003308C5003208C4003108C3003008C2008B
:10117000C6018A1153238A15DF30CF008A114C2112
:101180008A15153003178D0000308F008A11031364
:1011900078218A15C3012A30C2008A1147278A158F
:1011A000F808031DD6280030F8003429CC30C400DC
:1011B0008A1171278A154430C4008A1171278A1553
:1011C0008A11A4278A15F8080319E0288A114727ED
:1011D0008A15F808031DEF280030F8003429CC30B8
:1011E000C4008A1171278A15BE30C4008A11712784
:1011F0008A154308FA004208C4004308C5008A1152
:10120000A4278A1544088400831345188317840A89
:1012100080018403780880004308FA004208C40073
:101220004308C50042088400831343188317840AC7
:101230000008C70084030008C6008A11A4278A1585
:10124000C90100304604F70078084704FA00440852
:101250008400831345188317840A7A088000840366
:10126000770880000130F800F808031982292B085C
:10127000C3002A08C2008A1158268A157A08C500B8
:101280007908C4007808C3007708C2004508C9007F
:101290004408C8004308C7004208C600CD01CC017D
:1012A000CB018330CA008A117D268A157A08B700DF
:1012B0007908B6007808B5007708B4000330D0008C
:1012C0000130D1008A113A218A1502308400370892
:1012D000C5003608C4003508C3003408C200C60182
:1012E0008A1153238A15DF30CF008A114C218A15C9
:1012F000173003178D0000308F008A1103137821F7
:101300008A15B2290C30CF008A114C218A1505307C
:10131000D0000130D1008A113A218A151930031703
:101320008D0000308F008A11031378218A15053053
:10133000D0000230D1008A113A218A151E300317DD
:101340008D0000308F008A11031378218A150C302C
:10135000C200FA30D0008A1130208A15C20BA929A8
:101360008A0100280800BC08031D00302F08C500B2
:101370002E08C4002D08C3002C08C2003708C9007D
:101380003608C8003508C7003408C6008A11A624EC
:101390008A150318CD29031DEB29831686128312A3
:1013A00086160E30D0000230D1008A113A218A15FB
:1013B0004F30CF008A114C218A156E30CF008A1130
:1013C0004C218A152030CF008A114C218A153C0B04
:1013D000EA29EB2900302F08C5002E08C4002D088B
:1013E000C3002C08C2002308C9002208C800210835
:1013F000C7002008C6008A11A6248A150318022AED
:10140000031D082AAF01AE012030AD008130AC00D1
:101410002F08C5002E08C4002D08C3002C08C200E8
:10142000C901C8012030C7008230C6008A11A62435
:101430008A1503193F2A2F08C5002E08C4002D085D
:10144000C3002C08C200C901C8012030C700813088
:10145000C6008A11A6248A1503193F2A2F08C50041
:101460002E08C4002D08C3002C08C200C901C80101
:10147000C701C6018A11A6248A15031D562A8316A0
:101480008612831286120E30D0000230D1008A11EB
:101490003A218A15123003178D0000308F008A110F
:1014A000031378218A15BC08031D00308A150A121F
:1014B000C92A03081F398300A301A201A101A001C9
:1014C000A701A6014830A5008530A400AF01AE01F8
:1014D0002030AD008230AC0083161F149F141F15FE
:1014E0009F1107309C0083138813831288178A1179
:1014F000FD288A158316861283128612C101C00147
:101500002430BF008430BE008A11E52C8A150230D9
:10151000C2009630D0008A1130208A15C20B892A69
:101520008316061483120618842A8316061683125D
:10153000061A842A8A11782D8A150A30D0008A1159
:1015400030208A150E30D0000230D1008A113A21A5
:101550008A152A3003178D0000308F008A1103137B
:1015600078218A1500203308C5003208C4003108EC
:10157000C3003008C2004108C9004008C8003F0845
:10158000C7003E08C6008A11A6248A15031CD42A67
:10159000B3290230C200FA30D0008A1130208A15F7
:1015A000C20BCB2A0020B32A4108C5004008C40062
:1015B0003F08C3003E08C2003308C9003208C80013
:1015C0003108C7003008C6008A11A6248A15031CFA
:1015D000EB2A0020D42A0430C200FA30D0008A114D
:1015E00030208A15C20BED2A00203308C5003208CE
:1015F000C4003108C3003008C2004108C9004008D7
:10160000C8003F08C7003E08C6008A11A6248A15F4
:10161000031C1E2B83168612831286120E30D000F6
:101620000230D1008A113A218A152D3003178D001E
:1016300000308F008A11031378218A15B22A6300C3
:02400E00723FFF
:00000001FF
;PIC16F877A
;CRC=D046  CREATED="19-liep.-20 14:13"
