:1000000008308A00002800000A108A100A118207AE
:1000100028340C3401340634D332741D201000000F
:10002000D03B721D20100001C31D2000C31D200005
:10003000A025EC306932E11020004F30840083139A
:100040000008031934280230F800BF30F7006400BC
:10005000F70B2728F80B25289630F700F70B2E28EA
:1000600031286400800B232808005618392888118D
:100070003A288815831688118312D6184128081249
:100080004228081683160812831256194928881226
:100090004A288816831688128312D6195128081305
:1000A00052280817831608130000831208158316B8
:1000B000081164005B2800008312081183160811E0
:1000C00083120800D701831688150030831288191F
:1000D0000130D7048316081600308312081A013045
:1000E000F7000310F70D7708D70483168816003041
:1000F0008312881A0130F700F70DF70DFC30F70571
:100100007708D7048316081700308312081B0130C4
:10011000F700F70DF70DF70DF830F7057708D7045E
:100120005708F80008008316081108108810831279
:1001300008108316081088150816881608178312E9
:10014000881483168810000083120815831608117E
:100150000000831262207808D60008118316081167
:100160000000831208158316081164000000831232
:1001700062207808D500081183160811881108122A
:10018000881208138312560EF700F030F70577082F
:100190005504F8007808D500D51FD02883169B2871
:1001A000D308031DD5280810D62808148316081074
:1001B0000000831288108316881000008312081133
:1001C000831608118312540ED5000F30D50555083B
:1001D000D600352054080F39D500D6003520080048
:1001E0008316881108128812081308110810881045
:1001F0008312081083160810831288108316881043
:1002000083120811831608110F308312CF001D20AE
:100210000130C1004108033C031C16290330D600FD
:1002200035200530CF001D20C10A0A290230D60032
:1002300035200530CF001D20C1014108033C031CBF
:100240002A2941080420C200D3014208D400932087
:10025000C10A1D298A150A121228500B3029332988
:100260004030D1003429D10101304F02D10751086B
:100270008038D200D3015208D400932008004E08E1
:10028000073A03194D290B3A03195229063A031963
:100290005A29023A0319602965290130CF00D0009C
:1002A0002D216A29D3010130D40093200230CF00E0
:1002B0001D206A290130CF000230D0002D216A298B
:1002C000D3011030D40093206A290130D3004E08A6
:1002D000D400932008000B08C1008B13831603176A
:1002E0008C170C140000000083120C087F390319CE
:1002F000B2290313C20003170D080313C300031729
:100300000F080313C4004208CE003F21430803171F
:100310008D000313440803178F0083168C170C14E9
:100320000000000083120C0D0E0D7F390319B22955
:100330000313C20003170D080313C30003170F08AC
:100340000313C4004208CE003F21430803178D0069
:100350000313440803178F008D0A03198F0A031330
:100360006E2903170313C11B8B1708000830C40242
:10037000031CC6294430840083130310800C00083A
:100380000319C629C4296400800BC32908008316F9
:100390008610831286108316861064000230831242
:1003A000C300F730C400B621C30BD12983168614CD
:1003B00064004130F700F70BDB29DE2900008614CA
:1003C00083128618EE2964000330C3008330C40012
:1003D000B621C30BE6290130F800F0290030F800FF
:1003E0000800C4014408073C031C252A4308F70001
:1003F0004408F8000319002A0310F70CF80BFC2935
:10040000003077180130C5004508C60083168610F5
:10041000831286108316861064000E2A0000831251
:10042000C608031D152A8610162A86148316861000
:1004300064003430F700F70B1B2A1E2A8614640070
:10044000212A00008312C40AF2290800C801C7014A
:100450004708073C031C552A831686108312861012
:10046000831686106400342A00008614640002306B
:10047000F700F70B392A3C2A861483124910861894
:10048000491464004130F700F70B442A472A000062
:10049000003049180130F800F808031D512A0310F4
:1004A000522A0314C80CC70A282A4808F800080072
:1004B000C721F808031D5F2A0030F800AD2ACC30B0
:1004C000C300F1214430C300F1212622F8080319AA
:1004D000652AC721F808031D702A0030F800AD2AEC
:1004E000CC30C300F121BE30C300F1214208FA0034
:1004F0004108C3004208C400262243088400831335
:1005000044188317840A8001840378088000420815
:10051000FA004108C3004208C40041088400831364
:1005200042188317840A0008C60084030008C50027
:100530002622C80100304504F70078084604FA0076
:1005400043088400831344188317840A7A088000C0
:100550008403770880000130F8008A150A126A289F
:100560008E30F7004208F8004108F900FA01C21F76
:10057000BE2AF809F909F90A0319F80AF808031D4F
:10058000CB2A7908F800F9010830F702F808031DB2
:10059000CB2AF701D42A0310F81BD22AF90DF80D43
:1005A000F703CB2AC21FF8130800450803199A2B3A
:1005B000D100490803199A2BD102031CE42A7F3089
:1005C000D10703189A2BEA2A8130D102031C9A2BF7
:1005D00003199A2B5108F700F801F901FA01D0012B
:1005E0004608CF00CF174708CE004808CD00193085
:1005F000D1004C08CD0203180D2B0130CE02031898
:100600000D2BCF0203180D2BD00203180D2BD00A8F
:10061000CF0ACE0A4C08CD073F2B4B08CE02031859
:10062000282B0130CF020318282BD0020318282BC7
:10063000D00ACF0A4B08CE074C08CD07031C3F2B2E
:10064000CE0A031D3F2BCF0A031D3F2BD00A3F2BA1
:100650004A088038CF0203183E2B0130D00203181D
:100660003E2BD00A4A088038CF074B08CE07031C20
:100670001C2BCF0A031D1C2BD00A1C2B7A14D10B68
:10068000422B4D2B0310CD0DCE0DCF0DD00D0310F1
:10069000FA0DF90DF80DD20DF92A521C552B031045
:1006A000F80CF90CFA0CD20C582BF70303199A2BFF
:1006B000D21B812B0310CD0DCE0DCF0DD00D4C08CC
:1006C000CD0203186D2B0130CE0203186D2BCF0223
:1006D00003186D2BD002031C902B4B08CE0203187D
:1006E000782B0130CF020318782BD002031C902BFB
:1006F0004A088038CF020318812B0130D002031C36
:10070000902BFA0A031D902BF90A031D902BF80A6F
:10071000031D902BF70A03199A2BF80CF90CFA0C0D
:100720004608D1004A08D106D11F982BF8179E2BF6
:10073000F8139E2BF701F801F901FA01080083185C
:10074000A42B563084008313F701F801F901FA0154
:10075000D601D701D801D9015508540453045204D5
:100760000319E22B2030DA000310CE0DCF0DD00D8F
:10077000D10DD60DD70DD80DD90D55085902031D31
:10078000CB2B54085802031DCB2B53085702031DD3
:10079000CB2B52085602031CDC2B5208D6025308FE
:1007A000031C530FD7025408031C540FD8025508DA
:1007B000031C550FD9020314F70DF80DF90DFA0DAE
:1007C000DA0BB42B56088000840A57088000840A8C
:1007D00058088000840A5908800008000408C600F0
:1007E0004508C8000319802C4408D1004308D000F4
:1007F0004208CF004108CE00D501D4012030D300FB
:100800008230D2004E080319722CD6005208031908
:10081000722CD6070318132C7F30D602031C722CBF
:100820000319722C172C8130D6070318722C560826
:10083000F700F801F901FA014F08DA00DA17500859
:10084000D9005108D8001830D600D701581C402CC8
:100850005508FA07031C322CF90A031D322CF80A3A
:100860000319D7175408F907031C392CF80A031980
:10087000D7175308D000D0175008F8070318D71718
:10088000D70DF80CF90CFA0CDA0CD90CD80C0310B3
:10089000D60B252C0130F7070318722CF81B572CA8
:1008A000DA0DFA0DF90DF80DF7030319722CDA1FA2
:1008B000682CFA0A031D682CF90A031D682CF80A33
:1008C000031D682CF80CF90CFA0CF70A0319722CAA
:1008D0004F08D7005308D706D71F702CF817762C6F
:1008E000F813762CF701F801F901FA017A08C4002F
:1008F0007908C3007808C2007708C100C80BF42B40
:100900004408D1004308D0004208CF004108CE007F
:100910004E08B63CCE00FA014F08D200CF170310A4
:10092000CF0CD00CD10CFA0CF90CF80CF70CCE0B48
:100930008F2CD21FA62CF709F809F909FA09F70A32
:100940000319F80A0319F90A0319FA0A7A08C40004
:100950007908C3007808C2007708C100C41FBD2C05
:10096000C603C616C109C209C309C409C10A0319CD
:10097000C20A0319C30A0319C40A3B30CD009A30D6
:10098000CC00CA30CB00CA010A30C80045080319A0
:10099000C60A83144130840083134408D1004308FD
:1009A000D0004208CF004108CE004D08D5004C08C9
:1009B000D4004B08D3004A08D2009F237808F708D8
:1009C000031DF52C450A48020319F52C46080319A6
:1009D000F72C0F3948020319EF2C0318272DC61BDB
:1009E000272D461BF72C2030232D2030C605C61E90
:1009F000052DC6124508031DC6037708C6002D3015
:100A0000CE003F214608F700C60145084802031DF5
:100A1000132D7708C6002E30CE003F214608F70080
:100A20002030C60500303030C61E232DC6124508C2
:100A3000031DC6037708C6002D30CE003F214608AF
:100A4000F700C6013030F7077708CE003F2183104A
:100A50004D08D1004C08D0004B08CF004A08CE000A
:100A6000D501D401D3010A30D2009F237A08CD00EA
:100A70007908CC007808CB007708CA00C80BC92CCD
:100A800008008316061183120611831606116400EE
:100A900002308312C300F730C400B621C30B4B2DC4
:100AA0008316061564004130F700F70B552D582DBD
:100AB0000000061583120619682D64000330C30078
:100AC0008330C400B621C30B602D0130F8006A2DBD
:100AD0000030F8000800C4014408073C031C9F2DA7
:100AE0004308F7004408F80003197A2D0310F70CA7
:100AF000F80B762D003077180130C5004508C60088
:100B00008316061183120611831606116400882DC0
:100B100000008312C608031D8F2D0611902D0615A7
:100B20008316061164003430F700F70B952D982DCD
:100B3000061564009B2D00008312C40A6C2D08006A
:100B4000C801C7014708073C031CCF2D83160611B7
:100B500083120611831606116400AE2D00000615DF
:100B600064000230F700F70BB32DB62D0615831283
:100B700049100619491464004130F700F70BBE2DE7
:100B8000C12D0000003049180130F800F808031D9D
:100B9000CB2D0310CC2D0314C80CC70AA22D480876
:100BA000F80008004125F808031DD92D0030F80091
:100BB000272ECC30C3006B254430C3006B25A02505
:100BC000F8080319DF2D4125F808031DEA2D003030
:100BD000F800272ECC30C3006B25BE30C3006B2538
:100BE0004208FA004108C3004208C400A025430897
:100BF0008400831344188317840A800184037808CF
:100C000080004208FA004108C3004208C4004108BD
:100C10008400831342188317840A0008C6008403E3
:100C20000008C500A025C80100304504F700780879
:100C30004604FA0043088400831344188317840A87
:100C40007A0880008403770880000130F8008A1554
:100C50000A12BE2880308318C606CB01CC01420898
:100C6000CA004608CA06410803191A2FC900F7002E
:100C700045080319232FC9020319BF2E031C7D2E1B
:100C80004608CF00CF174708CE004808CD00CC015A
:100C90000310CF0CCE0CCD0CCC0CC90B472ECA1FA9
:100CA000542E4B14372F4B1049104B1644308400F0
:100CB00083134C2F4B12CA1B672E491C722ECF0C6C
:100CC000CE0CCD0CCC0CF70A0319322F722ECF1B91
:100CD000752E0310CC0DCD0DCE0DCF0DF7030319DE
:100CE000322F672E4B17DF2E4B134208CA00CA1F44
:100CF0007B2ECF172B2FCF132B2F4508C900F700C2
:100D00004108C9024208CF00CF174308CE0044086B
:100D1000CD00CC010310CF0CCE0CCD0CCC0CC90BEC
:100D2000892ECA1F962ECB14372FCB104910CB1605
:100D30004830840083134C2FCB12CA1BA92E491CA8
:100D4000B42ECF0CCE0CCD0CCC0CF70A0319322FDD
:100D5000B42ECF1BB72E0310CC0DCD0DCE0DCF0D65
:100D6000F7030319322FA92ECB17DF2ECB1346081A
:100D7000CA00CA1FBD2ECF172B2FCF132B2F46080B
:100D8000CF00CF174708CE004808CD00CA1FCC2E91
:100D9000CF134B15372F4B11CC0149104430840031
:100DA00083134C2FCA1BF52E4208CA00491CDF2EA4
:100DB000CF0CCE0CCD0CCC0CF70A0319322FCC1F64
:100DC000F02ECD0A031DF02ECE0A031DF02ECF0A01
:100DD000031DF02ECF0CCE0CCD0CF70A0319322FC9
:100DE0004B1B742ECB1BB62E142F8030CF06CF1F7B
:100DF000FD2E372F4608CA000A2F4208CA00CF0826
:100E0000031D0A2FCE08031D0A2FCD08031D0A2F2C
:100E1000F7012B2FCF1B142F0310CC0DCD0DCE0DB2
:100E2000CF0DF70B0A2F322FCA1F182FCF172B2FDA
:100E3000CF132B2F4508F7004608CF004708CE00F8
:100E40004808CD002B2F4108F7004208CF00430887
:100E5000CE004408CD004F08F8004E08F9004D08B8
:100E6000FA006A2FF701F801F901FA016A2FCC01A3
:100E7000CD09CE09CF09CC09CC0A031D452FCD0AD7
:100E8000031D452FCE0A0319CF0A4B18532ECB183A
:100E9000952E4B19CB2EFA2E0008CD07031C562F8A
:100EA000CE0A031D562FCF0A0319491484030008E4
:100EB000CE07031C5E2FCF0A0319491484030008D0
:100EC000801F803ACF07031849144B1A5A2ECB1AA9
:100ED0009C2ED22E08004208C9004608C906C91F28
:100EE000762F03110310C21B0314A92F4208C90057
:100EF0004508CA004108CA020319842FC91FA92F37
:100F00000308013A8300A92F4608CA004208CA0212
:100F10000319902FC91FA92F0308013A8300A92F95
:100F20004708CA004308CA0203199C2FC91FA92FEA
:100F30000308013A8300A92F4808CA004408CA02DE
:100F40000319A82FC91FA92F0308013A8300A92F4D
:040F50000310080082
:1010000003081F39830083161F149F141F159F1197
:1010100007309C0083138312A801A701A601A50134
:101020008A11F0288A150B30CF000130D0008A11C8
:101030002D218A150C3003178D0000308F008A1186
:1010400003136B218A150B30CF000230D0008A11B8
:101050002D218A15103003178D0000308F008A1162
:1010600003136B218A150130CF00D0008A112D2186
:101070008A155630CE008A113F218A153A30CE00AB
:101080008A113F218A152030CE008A113F218A150E
:101090000130CF000230D0008A112D218A15413055
:1010A000CE008A113F218A153A30CE008A113F21A5
:1010B0008A152030CE008A113F218A156400BC01B8
:1010C000BB012030BA008330B900C2012130C10019
:1010D0008A11582A8A15F8080319B9282208C2006B
:1010E0002108C1008A11B0228A157A08C400790843
:1010F000C3007808C2007708C1004408C80043084C
:10110000C7004208C6004108C500CC01CB01CA0196
:101110008330C9008A11D5228A157A08B00079086F
:10112000AF007808AE007708AD000330CF00013083
:10113000D0008A112D218A15023084003008C400A5
:101140002F08C3002E08C2002D08C1000130C500C1
:101150008A11EE238A15DF30CE008A113F218A15CD
:10116000143003178D0000308F008A1103136B2198
:101170008A15C2012330C1008A11D22D8A15F808C0
:1011800003190E292408C2002308C1008A11B022C5
:101190008A157A08C4007908C3007808C200770865
:1011A000C1004408C8004308C7004208C6004108FF
:1011B000C500CC01CB01CA018330C9008A11D522F8
:1011C0008A157A08B4007908B3007808B200770865
:1011D000B1000330CF000230D0008A112D218A15D2
:1011E000023084003408C4003308C3003208C2004F
:1011F0003108C1000130C5008A11EE238A15DF30A5
:10120000CE008A113F218A15163003178D00003059
:101210008F008A1103136B218A152E290C30CE0002
:101220008A113F218A150530CF000230D0008A1183
:101230002D218A15183003178D0000308F008A1178
:1012400003136B218A150C30C100FA30CF008A11CC
:101250001D208A15C10B25298A0100288316061432
:101260008312061862290E30CF000130D0008A1197
:101270002D218A1583102808C4002708C3002608DA
:10128000C2002508C100C801C7012030C600823055
:10129000C5008A112A268A157A08A8007908A700AD
:1012A0007808A6007708A500013084002808C4004B
:1012B0002708C3002608C2002508C100C5018A11FD
:1012C000EE238A15831606168312061A96290E3007
:1012D000CF000130D0008A112D218A1583142808EF
:1012E000C4002708C3002608C2002508C100C801A1
:1012F000C7012030C6008230C5008A112A268A150F
:101300007A08A8007908A7007808A6007708A50041
:10131000013084002808C4002708C3002608C20042
:101320002508C100C5018A11EE238A152808C400CA
:101330002708C3002608C2002508C100C801C7014C
:101340004830C6008530C5008A116B278A15031DF9
:10135000AD29A801A701A601A5012808C4002708F6
:10136000C3002608C2002508C100C801C701A0307B
:10137000C6008230C5008A116B278A150319D1294E
:101380002808C4002708C3002608C2002508C10099
:10139000C801C701C601C5018A116B278A15031D43
:1013A000D729A801A7012030A6008230A500300867
:1013B000C4002F08C3002E08C2002D08C100280851
:1013C000C8002708C7002608C6002508C5008A11DE
:1013D0006B278A15031DF32983168612831286163E
:1013E000013C031D00303008C4002F08C3002E0844
:1013F000C2002D08C1003408C8003308C7003208F5
:10140000C6003108C5008A116B278A15031D0F2AF3
:101410008316861283128612003A031D00300430B0
:10142000C100FA30CF008A111D208A15C10B112A84
:041430005E286300CF
:02400E00723FFF
:00000001FF
;PIC16F877A
;CRC=33A2  CREATED="26-kov.-20 23:08"
