:1000000008308A00002800000A108A100A118207AE
:1000100028340C3401340634D332741D201000000F
:10002000D03B721D20100001C31D2000C31D200005
:10003000C31D2000C430F6346B36E93A00016B363C
:10004000E134E4302100C31D20004F33661000016D
:100050004F336610000047308400831300080319F3
:100060003E280230F800F701F70B3428F80B33284C
:100070009730F700F70B3A28800B312808004E180C
:100080004328881144288815831688118312CE18B6
:100090004B2808124C2808168316081283124E1992
:1000A0005328881254288816831688128312CE1972
:1000B0005B2808135C2808178316081300008312B6
:1000C0000815831608116428652883120811831601
:1000D000081183120800CF0183168815003083129F
:1000E00088190130CF048316081600308312081ACD
:1000F0000130F7000310F70D7708CF048316881638
:1001000000308312881A0130F700F70DF70DFC302C
:10011000F7057708CF048316081700308312081BF1
:100120000130F700F70DF70DF70DF830F7057708F8
:10013000CF044F08F8000800831608110810881033
:1001400083120810831608108815081688160817D9
:1001500083128814831688100000831208158316F2
:100160000811000083126B207808CE000811831656
:10017000081100008312081583160811BF28831286
:100180006B207808CD000811831608118811081219
:100190008812081383124E0EF700F030F705770827
:1001A0004D04F8007808CD00CD1FD8288316A42868
:1001B000CB08031DDD280810DE280814831608105C
:1001C0000000831288108316881000008312081123
:1001D0008316081183124C0ECD000F30CD054D084B
:1001E000CE003F204C080F39CD00CE003F20080044
:1001F0008316881108128812081308110810881035
:100200008312081083160810831288108316881032
:1002100083120811831608110F308312C7002B2098
:100220000130B9003908033C031C1E290330CE00FD
:100230003F200530C7002B20B90A12290230CE001A
:100240003F200530C7002B20B9013908033C031CAF
:10025000322939080420BA00CB013A08CC009C208E
:10026000B90A25298A150A120E28480B38293B2974
:100270004030C9003C29C90101304702C90749087B
:100280008038CA00CB014A08CC009C2008004608F0
:10029000073A031955290B3A03195A29063A031943
:1002A0006229023A031968296D290130C700C80084
:1002B00035217229CB010130CC009C200230C700CF
:1002C0002B2072290130C7000230C8003521722965
:1002D000CB011030CC009C2072290130CB004608A5
:1002E000CC009C2008000B08B9008B138316031761
:1002F0008C170C140000000083120C087F390319BE
:10030000BA290313BA0003170D080313BB00031720
:100310000F080313BC003A08C60047213B08031727
:100320008D0003133C0803178F0083168C170C14E1
:100330000000000083120C0D0E0D7F390319BA293D
:100340000313BA0003170D080313BB0003170F08AC
:100350000313BC003A08C60047213B0803178D0071
:1003600003133C0803178F008D0A03198F0A031328
:10037000762903170313B91B8B1708008318C329A9
:100380004E3084008313F701F801F901FA01CE0120
:10039000CF01D001D1014D084C044B044A0403198C
:1003A000012A2030D2000310C60DC70DC80DC90D9B
:1003B000CE0DCF0DD00DD10D4D085102031DEA29F0
:1003C0004C085002031DEA294B084F02031DEA297D
:1003D0004A084E02031CFB294A08CE024B08031CA4
:1003E0004B0FCF024C08031C4C0FD0024D08031CCE
:1003F0004D0FD1020314F70DF80DF90DFA0DD20BC4
:10040000D3294E088000840A4F088000840A5008CF
:100410008000840A5108800008000408BE003D08DE
:10042000C00003199F2A3C08C9003B08C8003A08CD
:10043000C7003908C600CD01CC012030CB00823086
:10044000CA0046080319912ACE004A080319912AC6
:10045000CE070318322A7F30CE02031C912A0319DB
:10046000912A362A8130CE070318912A4E08F700C8
:10047000F801F901FA014708D200D2174808D10063
:100480004908D0001830CE00CF01501C5F2A4D081B
:10049000FA07031C512AF90A031D512AF80A031905
:1004A000CF174C08F907031C582AF80A0319CF176D
:1004B0004B08C800C8174808F8070318CF17CF0D16
:1004C000F80CF90CFA0CD20CD10CD00C0310CE0B9A
:1004D000442A0130F7070318912AF81B762AD20D17
:1004E000FA0DF90DF80DF7030319912AD21F872A87
:1004F000FA0A031D872AF90A031D872AF80A031D31
:10050000872AF80CF90CFA0CF70A0319912A470804
:10051000CF004B08CF06CF1F8F2AF817952AF81364
:10052000952AF701F801F901FA017A08BC00790867
:10053000BB007808BA007708B900C00B132A3C0842
:10054000C9003B08C8003A08C7003908C600460879
:10055000B63CC600FA014708CA00C7170310C70C0B
:10056000C80CC90CFA0CF90CF80CF70CC60BAE2A27
:10057000CA1FC52AF709F809F909FA09F70A031980
:10058000F80A0319F90A0319FA0A7A08BC0079086B
:10059000BB007808BA007708B900BC1FDC2ABE038C
:1005A000BE16B909BA09BB09BC09B90A0319BA0AC6
:1005B0000319BB0A0319BC0A3B30C5009A30C400BA
:1005C000CA30C300C2010A30C0003D080319BE0A88
:1005D00083143930840083133C08C9003B08C800E9
:1005E0003A08C7003908C6004508CD004408CC00C9
:1005F0004308CB004208CA00BE217808F708031D53
:10060000142B3D0A40020319142B3E080319162B24
:100610000F39400203190E2B0318462BBE1B462B25
:100620003E1B162B2030422B2030BE05BE1E242B35
:10063000BE123D08031DBE037708BE002D30C60064
:1006400047213E08F700BE013D084002031D322B42
:100650007708BE002E30C60047213E08F700203044
:10066000BE0500303030BE1E422BBE123D08031DB9
:10067000BE037708BE002D30C60047213E08F700B4
:10068000BE013030F7077708C600472183104508C0
:10069000C9004408C8004308C7004208C600CD018D
:1006A000CC01CB010A30CA00BE217A08C500790806
:1006B000C4007808C3007708C200C00BE82A08000D
:1006C0000830BC02031C702B3C30840083130310E1
:1006D000800C00080319702B6E2B0000800B6D2B13
:1006E0000800831686108312861083168610023047
:1006F0008312BB00F830BC006023BB0B7A2B83163F
:1007000086144230F700F70B832B00008614831207
:100710008618942B0230BB00C630BC006023BB0B94
:100720008C2B0130F800962B0030F8000800BC013B
:100730003C08073C031CC92B3B08F7003C08F800A9
:100740000319A62B0310F70CF80BA22B0030771817
:100750000130BD003D08BE0083168610831286104E
:1007600083168610B32BB42B8312BE08031DBA2B3D
:100770008610BB2B8614831686103430F700F70BD7
:10078000BF2BC22B00008614C52BC62B8312BC0ABC
:10079000982B0800C001BF013F08073C031CF62B43
:1007A000831686108312861083168610D72BD82BBB
:1007B00086140230F700F70BDB2BDE2B00008614CB
:1007C00083124110861841144230F700F70BE62BD4
:1007D0000000003041180130F800F808031DF22B2A
:1007E0000310F32B0314C00CBF0ACC2B4008F800F5
:1007F00008007123F808031D002C0030F8004E2C6F
:10080000CC30BB0097234430BB009723CA23F808A1
:100810000319062C7123F808031D112C0030F80071
:100820004E2CCC30BB009723BE30BB0097233A0838
:10083000FA003908BB003A08BC00CA233B08840010
:1008400083133C188317840A80018403780880008E
:100850003A08FA003908BB003A08BC00390884009D
:1008600083133A188317840A0008BE008403000823
:10087000BD00CA23C00100303D04F70078083E04E3
:10088000FA003B08840083133C188317840A7A0813
:1008900080008403770880000130F80008008E3063
:1008A000F7003A08F8003908F900FA01BA1F5D2C80
:1008B000F809F909F90A0319F80AF808031D6A2C5E
:1008C0007908F800F9010830F702F808031D6A2CCE
:1008D000F701732C0310F81B712CF90DF80DF703B9
:1008E0006A2CBA1FF81308003D080319392DC900F6
:1008F00041080319392DC902031C832C7F30C90715
:100900000318392D892C8130C902031C392D031994
:10091000392D4908F700F801F901FA01C8013E082C
:10092000C700C7173F08C6004008C5001930C900F6
:100930004408C5020318AC2C0130C6020318AC2CC5
:10094000C7020318AC2CC8020318AC2CC80AC70A8B
:10095000C60A4408C507DE2C4308C6020318C72C84
:100960000130C7020318C72CC8020318C72CC80AD5
:10097000C70A4308C6074408C507031CDE2CC60A7D
:10098000031DDE2CC70A031DDE2CC80ADE2C42081C
:100990008038C7020318DD2C0130C8020318DD2C93
:1009A000C80A42088038C7074308C607031CBB2C87
:1009B000C70A031DBB2CC80ABB2C7A14C90BE12C37
:1009C000EC2C0310C50DC60DC70DC80D0310FA0D94
:1009D000F90DF80DCA0D982C4A1CF42C0310F80CD4
:1009E000F90CFA0CCA0CF72CF7030319392DCA1BA2
:1009F000202D0310C50DC60DC70DC80D4408C50236
:100A000003180C2D0130C60203180C2DC702031861
:100A10000C2DC802031C2F2D4308C6020318172DE6
:100A20000130C7020318172DC802031C2F2D4208DE
:100A30008038C7020318202D0130C802031C2F2D57
:100A4000FA0A031D2F2DF90A031D2F2DF80A031D85
:100A50002F2DF70A0319392DF80CF90CFA0C3E0862
:100A6000C9004208C906C91F372DF8173D2DF813D4
:100A70003D2DF701F801F901FA010800831606116E
:100A8000831206118316061102308312BB00F83060
:100A9000BC006023BB0B472D831606154230F700C0
:100AA000F70B502D0000061583120619612D023038
:100AB000BB00C630BC006023BB0B592D0130F800D1
:100AC000672D83160611831206150030F800080002
:100AD000BC013C08073C031C9A2D3B08F7003C086E
:100AE000F8000319772D0310F70CF80B732D003065
:100AF00077180130BD003D08BE0083160611831231
:100B0000061183160611842D852D8312BE08031D40
:100B10008B2D06118C2D0615831606113430F70027
:100B2000F70B902D932D00000615962D972D83120F
:100B3000BC0A692D0800C001BF013F08073C031C27
:100B4000C72D831606118312061183160611A82DD0
:100B5000A92D06150230F700F70BAC2DAF2D0000C4
:100B6000061583124110061941144230F700F70BA5
:100B7000B72D0000003041180130F800F808031DBF
:100B8000C32D0310C42D0314C00CBF0A9D2D4008B3
:100B9000F80008003E25F808031DD12D0030F800AC
:100BA0001F2ECC30BB0068254430BB0068259B2538
:100BB000F8080319D72D3E25F808031DE22D003053
:100BC000F8001F2ECC30BB006825BE30BB00682566
:100BD0003A08FA003908BB003A08BC009B253B08DC
:100BE000840083133C188317840A800184037808E7
:100BF00080003A08FA003908BB003A08BC003908FE
:100C0000840083133A188317840A0008BE00840303
:100C10000008BD009B25C00100303D04F7007808A6
:100C20003E04FA003B08840083133C188317840AAF
:100C30007A0880008403770880000130F8000800FB
:100C400080308318BE06C301C4013A08C2003E08C2
:100C5000C20639080319102FC100F7003D08031917
:100C6000192FC1020319B52E031C732E3E08C700AD
:100C7000C7173F08C6004008C500C4010310C70CD1
:100C8000C60CC50CC40CC10B3D2EC21F4A2E43140A
:100C90002D2F4310411043163C3084008313422F04
:100CA0004312C21B5D2E411C682EC70CC60CC50C1E
:100CB000C40CF70A0319282F682EC71B6B2E0310CC
:100CC000C40DC50DC60DC70DF7030319282F5D2EE2
:100CD0004317D52E43133A08C200C21F712EC717FF
:100CE000212FC713212F3D08C100F7003908C10289
:100CF0003A08C700C7173B08C6003C08C500C40136
:100D00000310C70CC60CC50CC40CC10B7F2EC21F30
:100D10008C2EC3142D2FC3104110C31640308400F5
:100D20008313422FC312C21B9F2E411CAA2EC70C35
:100D3000C60CC50CC40CF70A0319282FAA2EC71B12
:100D4000AD2E0310C40DC50DC60DC70DF703031955
:100D5000282F9F2EC317D52EC3133E08C200C21FD3
:100D6000B32EC717212FC713212F3E08C700C7175F
:100D70003F08C6004008C500C21FC22EC713431556
:100D80002D2F4311C40141103C3084008313422FA6
:100D9000C21BEB2E3A08C200411CD52EC70CC60C54
:100DA000C50CC40CF70A0319282FC41FE62EC50A68
:100DB000031DE62EC60A031DE62EC70A031DE62EF6
:100DC000C70CC60CC50CF70A0319282F431B6A2E43
:100DD000C31BAC2E0A2F8030C706C71FF32E2D2F42
:100DE0003E08C200002F3A08C200C708031D002FAA
:100DF000C608031D002FC508031D002FF701212F72
:100E0000C71B0A2F0310C40DC50DC60DC70DF70B68
:100E1000002F282FC21F0E2FC717212FC713212FD6
:100E20003D08F7003E08C7003F08C6004008C5005F
:100E3000212F3908F7003A08C7003B08C6003C08D4
:100E4000C5004708F8004608F9004508FA00602F79
:100E5000F701F801F901FA01602FC401C509C609BB
:100E6000C709C409C40A031D3B2FC50A031D3B2F34
:100E7000C60A0319C70A4318492EC3188B2E4319F3
:100E8000C12EF02E0008C507031C4C2FC60A031DF7
:100E90004C2FC70A0319411484030008C607031C1A
:100EA000542FC70A0319411484030008801F803A95
:100EB000C70703184114431A502EC31A922EC82E86
:100EC00008003A08C1003E08C106C11F6C2F03117B
:100ED0000310BA1B03149F2F3A08C1003D08C2003B
:100EE0003908C20203197A2FC11F9F2F0308013A44
:100EF00083009F2F3E08C2003A08C2020319862FC2
:100F0000C11F9F2F0308013A83009F2F3F08C20093
:100F10003B08C2020319922FC11F9F2F0308013AF9
:100F200083009F2F4008C2003C08C20203199E2F75
:100F3000C11F9F2F0308013A83009F2F0310080051
:1010000003081F39830083161F149F141F159F1197
:1010100007309C0083138A118312F8288A158316DF
:10102000861283128612A801A7012030A600823002
:10103000A5000A30C7000130C8008A1135218A1581
:101040000C3003178D0000308F008A1103137321B9
:101050008A150E30C7000130C8008A1135218A1563
:10106000013084002808BC002708BB002608BA000D
:101070002508B900BD018A110D228A150A30C70062
:101080000230C8008A1135218A15103003178D00EF
:1010900000308F008A11031373218A150130C700B5
:1010A000C8008A1135218A155630C6008A11472199
:1010B0008A153A30C6008A1147218A152030C600A9
:1010C0008A1147218A150130C7000230C8008A11F1
:1010D00035218A154130C6008A1147218A153A30D8
:1010E000C6008A1147218A152030C6008A1147217F
:1010F0008A15BA012130B9008A11F9238A15F80836
:101100000319CC282208BA002108B9008A114F24FB
:101110008A157A08BC007908BB007808BA007708FD
:10112000B9003C08C0003B08BF003A08BE003908BF
:10113000BD00C401C301C2018330C1008A117424FF
:101140008A157A08AC007908AB007808AA007708FD
:10115000A9000230C7000130C8008A1135218A1564
:10116000023084002C08BC002B08BB002A08BA00FF
:101170002908B900BD018A110D228A15DF30C60089
:101180008A1147218A15143003178D0000308F0013
:101190008A11031373218A15BA012330B9008A1109
:1011A000CA258A15F80803191E292408BA0023083D
:1011B000B9008A114F248A157A08BC007908BB004F
:1011C0007808BA007708B9003C08C0003B08BF00A7
:1011D0003A08BE003908BD00C401C301C201833012
:1011E000C1008A1174248A157A08B0007908AF000A
:1011F0007808AE007708AD000230C700C8008A1139
:1012000035218A15023084003008BC002F08BB004D
:101210002E08BA002D08B900BD018A110D228A15C9
:10122000DF30C6008A1147218A15163003178D005A
:1012300000308F008A11031373218A1583168813D7
:10124000831288170C30B900FA30C7008A112B209E
:101250008A15B90B2429B401B301B201B101B80157
:10126000B7014830B6008530B50083168813831265
:101270008813BA012130B9008A11F9238A15F808B8
:1012800003198D292208BA002108B9008A114F24B8
:101290008A157A08BC007908BB007808BA0077087C
:1012A000B9003C08C0003B08BF003A08BE0039083E
:1012B000BD00C401C301C2018330C1008A1174247E
:1012C0008A157A08AC007908AB007808AA0077087C
:1012D000A9000230C7000130C8008A1135218A15E3
:1012E000023084002C08BC002B08BB002A08BA007E
:1012F0002908B900BD018A110D228A15DF30C60008
:101300008A1147218A15183003178D0000308F008D
:101310008A11031373218A15C12983168813831236
:1013200088170C30C6008A1147218A150530C7007E
:101330000130C8008A1135218A151A3003178D0033
:1013400000308F008A11031373218A150530C700FE
:101350000230C8008A1135218A151F3003178D000D
:1013600000308F008A11031373218A150C30B900E5
:10137000FA30C7008A112B208A15B90BB8298A01C7
:101380000028BA012330B9008A11CA258A15F80845
:101390000319132A2408BA002308B9008A114F241C
:1013A0008A157A08BC007908BB007808BA0077086B
:1013B000B9003C08C0003B08BF003A08BE0039082D
:1013C000BD00C401C301C2018330C1008A1174246D
:1013D0008A157A08B0007908AF007808AE0077085F
:1013E000AD000230C700C8008A1135218A150230CD
:1013F00084003008BC002F08BB002E08BA002D085E
:10140000B900BD018A110D228A15DF30C6008A118C
:1014100047218A15233003178D0000308F008A1171
:10142000031373218A1583160614831206186F2A74
:101430000E30C7000130C8008A1135218A1583108B
:101440002808BC002708BB002608BA002508B900F8
:10145000C001BF012030BE008230BD008A112026AD
:101460008A157A08A8007908A7007808A6007708E6
:10147000A500023084002808BC002708BB0026080D
:10148000BA002508B900BD018A110D228A158316FC
:101490008813831288170830B900FA30C7008A1100
:1014A0002B208A15B90B4D2A2808BC002708BB0041
:1014B0002608BA002508B9003808C0003708BF0060
:1014C0003608BE003508BD008A1161278A15031D44
:1014D0006F2AA801A7012030A6008230A50083163C
:1014E00006168312061ACD2A0E30C7000130C80036
:1014F0008A1135218A1583142808BC002708BB00EF
:101500002608BA002508B900C001BF012030BE007E
:101510008230BD008A1120268A157A08A800790831
:10152000A7007808A6007708A500023084002808E4
:10153000BC002708BB002608BA002508B900BD0179
:101540008A110D228A158316881383128817083092
:10155000B900FA30C7008A112B208A15B90BA92AC5
:101560002808BC002708BB002608BA002508B900D7
:101570003408C0003308BF003208BE003108BD0087
:101580008A1161278A150318C72A031DCD2AA801CD
:10159000A7012030A6008230A5002808BC0027083B
:1015A000BB002608BA002508B9002C08C0002B088B
:1015B000BF002A08BE002908BD008A1161278A15CC
:1015C0000318E42A031DFE2A831686128312861648
:1015D0000E30C7000230C8008A1135218A154F30FD
:1015E000C6008A1147218A156E30C6008A1147212C
:1015F0008A152030C6008A1147218A152C08BC00A4
:101600002B08BB002A08BA002908B9002808C00026
:101610002708BF002608BE002508BD008A116127E3
:101620008A1503182A2B03192A2B2C08BC002B0817
:10163000BB002A08BA002908B9003008C0002F08EA
:10164000BF002E08BE002D08BD008A1161278A1533
:10165000031D3E2B83168612831286120E30C7009E
:101660000230C8008A1135218A15253003178D00F4
:1016700000308F008A11031373218A152808BC00DB
:101680002708BB002608BA002508B900C001BF0121
:101690002030BE008230BD008A1161278A15031DEB
:1016A000652B83168612831286120E30C700023015
:1016B000C8008A1135218A15283003178D000030A3
:1016C0008F008A11031373218A152B298A010028A0
:1016D0000830B900FA30C7008A112B208A15B90BDF
:0416E0006A2B63000E
:02400E00723FFF
:00000001FF
;PIC16F877A
;CRC=E000  CREATED="25-birþ.-20 23:13"
